:10000000FFC0000019C1000017C1000015C10000A9
:1000100013C1000011C100000FC100000DC100009C
:100020000BC1000009C100000C940B0E0C94D10E02
:1000300003C1000001C10000FFC00000FDC00000BE
:10004000FBC00000F9C00000F7C00000F5C00000D0
:10005000F3C00000F1C00000EFC00000EDC00000E0
:10006000EBC00000E9C00000E7C00000E5C00000F0
:10007000E3C00000E1C00000DFC00000DDC0000000
:10008000DBC00000D9C00000D7C00000D5C0000010
:10009000D3C00000D1C00000CFC00000CDC0000020
:1000A000CBC00000C9C00000C7C000001204150486
:1000B0005B045604E0037B0469046E047304AA0421
:1000C0007705C106C106C106C106C106C106C10643
:1000D000C106C106C106C106C106C10652066106B7
:1000E0008C069406740664067D069F06A506AE0679
:1000F000B806410A620A380B620A380BA70AC40A1A
:10010000380BF40A0B0B322E302E3000352E342EE5
:100110003000396535343766333100500378007567
:10012000006D003100350034003100200066006CA5
:10013000006F0070007000790020006100640061B1
:10014000007000740065007200200028004D00421D
:10015000005F00430042004D005F00540045004531
:10016000004E00530059003200290000003A034EAF
:100170000061007400650020004C0061007700738E
:10018000006F006E00200061006E00640020004FD0
:1001900000700065006E00430042004D00200074B6
:1001A00000650061006D00000004030904090220DD
:1001B0000001010080320904000002FF0000000776
:1001C0000583022000000705040220000012011030
:1001D00001FF000008D01604050809010203010010
:1001E0000102030405060708090A0B0C0D0E0F8017
:1001F0008182838485868788898A8B8C8D8E8F0007
:1002000011241FBECFEFDAE0DEBFCDBF11E0A0E0CA
:10021000B1E0ECECF6E202C005900D92AA32B10713
:10022000D9F721E0AAE2B1E001C01D92A235B207E0
:10023000E1F7F7D00C946413E3CE80914201089566
:1002400081E037D61092420181E080932A0108951F
:1002500010922A011092400180E02BC60F931F9349
:10026000CF93DF93CDB7DEB728970FB6F894DEBFF4
:100270000FBECDBF80914A018076803291F58E010C
:100280000F5F1F4F88E0F80111928A95E9F7B801D6
:1002900080914B0188D28F3F19F484E00AD621C0A7
:1002A0009091E800977F9093E80090914A0197FF22
:1002B0000BC0682F880F770BC8010E944E0C8091ED
:1002C000E800982F9B7F08C08091E80080FFFCCF5A
:1002D0008091E800982F9E7F9093E8008F7780931D
:1002E000E80028960FB6F894DEBF0FBECDBFDF91B1
:1002F000CF911F910F910895E9EEF0E08081877012
:1003000091E09093420194E09083ABEEB0E09C9139
:1003100090629C9393E090839C9190629C938083E5
:100320000895CF93A89580914201811106C0DCD534
:10033000C82F882321F0CED503C0C0E001C0C1E0A2
:100340008C2FCF9108958091E9008770E0E0F1E073
:1003500021E030E0DF0190819923E9F09093E900FA
:100360003196A9010C9002C0440F551F0A94E2F780
:100370004093EA001092EA009091EB00986090930D
:10038000EB009091EB0095FFE5CF9091EB00906131
:100390009093EB00DFCF8093E9000895D4DF46E22D
:1003A00061E883E00E94420B46E260E884E00E943C
:1003B000420B82E07ED581E080934001089524E0E5
:1003C0002093E90070E04DE151E00E941A0C809109
:1003D000420181110BC08091E800982F9B7F909380
:1003E000E8008F778093E80081E0089580E0089529
:1003F00023E02093E90070E04DE151E00E94E60B1C
:100400008091420181110BC08091E800982F9E7F5E
:100410009093E8008F778093E80081E0089580E072
:100420000895CF93DF93CDB7DEB727970FB6F89433
:10043000DEBF0FBECDBF90E080E80FB6F89480938A
:100440006100909361000FBE9EE088E10FB6F894C2
:10045000A895809360000FBE909360000E94CE0D1F
:1004600080912A01811102C0A895FACFF6D480E0CC
:1004700020D5A5D08E010B5F1F4F83E0F82EA895E5
:1004800080914001882391F180914901843041F5A8
:100490008093E9008091E80085FF22C064E0CE01EE
:1004A00001968DDF811103C084E003D519C0F801E6
:1004B0008F2D11928A95E9F7B801CE01019623D2CA
:1004C00018162CF48D8363E0C80192DF09C08823DD
:1004D00039F084E0EED48091EB0080628093EB00F1
:1004E00020DF8111CDCF10924201CACF80912A0125
:1004F0008111C5CFA895FACF80913201811102C038
:100500000C94911288E8089580913201811102C003
:100510000C94DE1288E8089590913201992379F0C5
:10052000E0912C01F0912D019F012F5F3F4F3093FF
:100530002D0120932C01808380E090E0089590911C
:100540002B01943081F49DEF980F933040F08B3065
:1005500031F09DEE980F923010F0863189F481E0F1
:10056000809332010DC0E92FF0E0EA5DFE4F20815B
:10057000821304C09F5F90932B0108C0882319F059
:1005800010922B0103C081E080932B0181E090E069
:100590000895CF93C82FC0DF892B21F08C2FCF91E6
:1005A0000C94B712CF910895CF93C82FB5DF892B44
:1005B00021F08C2FCF910C94FA12CF9108951092C4
:1005C00033011BD79C01892B19F456D40C94331199
:1005D00090913301906190933301C9010895613086
:1005E00011F423E003C061110DC024E02093E90061
:1005F0009093360180933501609303018091E80068
:1006000085FFFCCF089580910301813099F42091FA
:10061000F3008091F20090E0922B892B31F48091CD
:10062000350190913601892BF1F08091E800982FE7
:100630009E7F14C0811117C08091350190913601C1
:10064000009721F06DE171E00E94BB0B8091E80002
:1006500085FD09C08091E800982F9B7F9093E8006A
:100660008F778093E8008FE080930301109236012A
:100670001092350108958093F10080913501909199
:100680003601019790933601809335018091E800FF
:1006900085FF04C080914201819508958091E80012
:1006A000982F9E7F9093E8008F778093E800809149
:1006B000E80085FDEFCF809142018823C1F3EACFA6
:1006C000EF92FF920F931F93CF93DF937C018B01E7
:1006D00061E0C80184DFE801209731F0F701099556
:1006E000CADF21978823C1F38EDF80E0DF91CF91AD
:1006F0001F910F91FF90EF900895FC018091E80009
:1007000085FF12C080914201811120C08091F100CB
:100710008083809135019091360101979093360145
:100720008093350180E008959091E800892F8B7FB8
:100730008093E8009F779093E8008091E80085FD22
:10074000E1CF809142018823C1F3DCCF8FEF089580
:10075000CF92DF92EF92FF920F931F93CF93DF938D
:100760001F92CDB7DEB76C017B0160E0C70137DFB8
:1007700087010115110559F0CE010196BEDF015028
:100780001109811104C08981F6010995F2CF3BDF7F
:1007900080E00F90DF91CF911F910F91FF90EF902C
:1007A000DF90CF900895CF93DF9390E0893091054B
:1007B00008F0A1C0EB01FC01EA5AFF4F0C9447136B
:1007C0008091E800877F8093E8008091E80080FFB7
:1007D000FCCF8091E800982F9E7F9093E8008F7760
:1007E0008093E8002FEF81EE94E02150804090400C
:1007F000E1F700C000000FB6F894A8958091600062
:10080000886180936000109260000FBE0E94D90D35
:10081000F8941092810010928900109288000C9434
:10082000801F6DC0188281E06BC08EE291E09093D2
:100830002D0180932C0183E03CD380914301909162
:100840004401892B29F4BBDE90934401809343013A
:100850008091430190914401892B09F44CC088E0B8
:1008600088838BE08983809133018A83909134015E
:10087000992379F081608A8381E080933401E0914B
:100880004301F09144010190F081E02D80E0099551
:1008900033DD809134018068809334018091400180
:1008A00081112BC08A8182608A8327C01092340113
:1008B00082E0FFD224C08091340180FD20C0E0910D
:1008C0004301F09144010190F081E02D80E0099511
:1008D00016C048E050E062E171E009C048E050E035
:1008E0006CE071E004C048E050E066E071E0CE01E9
:1008F0000E944D1302C08FEF03C088E001C080E06A
:10090000DF91CF910895BF92CF92DF92EF92FF9245
:100910000F931F93CF93DF9300D0CDB7DEB77C0149
:100920006B01809134018E7F80933401D701BC909C
:1009300012960D911C91139783E0BBD28B2D90E002
:10094000FC013897EA31F10508F01BC2E15AFF4F6C
:100950000C9447138091330184FD28C0F7018181F5
:10096000807F803509F446C080F4803249F120F45C
:10097000803109F006C21AC0803331F1803409F0A9
:1009800000C261E0C8012BDE31C0803709F46BC0C2
:1009900018F4803699F1F5C1803809F468C08039BF
:1009A00009F0EFC1B80184E892E09FC0E0914301F3
:1009B000F09144010480F581E02DC801099570C1D2
:1009C000B80186E791E191C0B8018AEE91E18DC04E
:1009D000CE0101960E94441289814DDE81114FC1E2
:1009E0008A8149DE81114BC102501109011511059F
:1009F00079F745C1B80189E792E177C06801E894C9
:100A0000D7F8C114D10409F44BC11092320161E04E
:100A1000C601E5DD5D988FE39CE90197F1F700C021
:100A200000000E949112E12CF12C002710786E2D0D
:100A30006170CE0101960E94A91287FD31C18981A2
:100A40001ADE81110CC00115110519F08981853557
:100A500031F09FEFE91AF90ACE14DF0441F7D3DD34
:100A60000E9491121DC1B8018CE792E03EC00115B1
:100A7000110509F415C11092320161E0C801AFDD22
:100A80005F985D988E988C98AFE3BCE91197F1F769
:100A900000C000000E94DE125F9AE12CF12C680178
:100AA000B2E0CB1AD10898E080E07D99FECF7D9B23
:100AB000FECFE2E0EA95F1F729B122952170880F87
:100AC000822B915091F7EC14FD0409F45F98D3DD6B
:100AD000882321F098DD0E94DE12E2C0FFEFEF1ABA
:100AE000FF0A0E151F05F9F6F5CFEADDD9C0809192
:100AF0003301D70111966C9184FD27C0862F807F2A
:100B0000803509F449C080F4803251F120F48031FD
:100B100009F037C11AC0803339F1803409F031C18E
:100B200060E0C8015CDD34C0803709F478C018F497
:100B30008036B1F126C1803809F475C0803909F0DA
:100B400020C1B80184ED92E0AAC06F70E09143012A
:100B5000F09144010280F381E02DC801099504C1A0
:100B6000B8018EE391E19BC0B80188EB91E197C099
:100B7000CE010196C2DD811182C0CE010296BDDD9B
:100B800081117DC0CE0101960E941E1202501109F2
:100B90000115110569F773C0B80182E692E17FC0C3
:100BA0000115110509F47CC01092320160E0C80102
:100BB00016DD5D989EE2E92E91E0F92E80912C01E0
:100BC00090912D01E816F90631F0D7018D917D0144
:100BD0000E94B712F3CF8EE291E090932D018093A3
:100BE0002C01E12CF12CCE01019687DD882349F000
:100BF0008701602F617080E00E94D2120E949112E2
:100C00003EC06E2D617089810E94D21287FD48C05E
:100C1000BFEFEB1AFB0A0E151F0529F7EACFB80143
:100C200089EC92E03CC001151105D1F1109232011E
:100C300060E0C801D4DC5F985D988E988C988EE255
:100C4000E82E81E0F82E80912C0190912D01E8167C
:100C5000F90631F0F70181917F010E94FA12F3CF7A
:100C60008EE291E090932D0180932C01E12CF12CE8
:100C7000CE01019642DD882321F00E94DE12C3DC02
:100C80000FC06E2D617089810E941813811108C0F8
:100C9000FFEFEF1AFF0A0E151F0551F7EECF58DDD3
:100CA00080E070C02091410181E090E0211102C0FC
:100CB00080E090E0D60112969C938E93119782E08B
:100CC00061C010924101FBCFE0914301F0914401DA
:100CD0000680F781E02DD70112966C91129711963C
:100CE0008C9109958823E1F2E0914301F091440150
:100CF0000084F185E02D099536C0E0914301F09123
:100D000044010284F385E02DD70112966C9112976D
:100D100011968C910995D3CF8091330184FD31C018
:100D200014B815B883B11FC08091330184FD29C068
:100D3000D70111968C919FEF94B985B9C0CF80915E
:100D4000330184FD1EC0D8DB0EC08091330184FDC9
:100D500018C0D70111968C911CDCB1CF8091330162
:100D600084FD0FC0D1DB90E0F60192838183A7CF91
:100D70008091330184FD05C0D70111968C9114DC5C
:100D80009ECF8FEF0F900F90DF91CF911F910F911A
:100D9000FF90EF90DF90CF90BF9008950F931F9337
:100DA000CF93DF93EA018901F9011082292F3327BC
:100DB0002230310561F02330310571F021303105E9
:100DC00009F040C082E190E02DEC31E03FC080E2CC
:100DD00090E02DEA31E03AC0992781309105B1F0D9
:100DE00090F082309105A9F0039761F580E090E0E2
:100DF0000E945C1390E0809590959927ECE0F1E0DB
:100E00002AE030E00CC0E9EAF1E005C0EDE6F1E0EF
:100E100002C0EBE1F1E0849190E09F0117C00097E0
:100E200041F0B9010E943313C09692938293CB0193
:100E3000F6CF8091040190E022E0F801208324E0C5
:100E400031E004C080E090E020E030E03983288386
:100E5000DF91CF911F910F9108951EB880E48DB955
:100E60008AE196E09093890080938800E1E8F0E0C1
:100E700080818D608083089580E888B983E18BB993
:100E800083EA81BB80E487B980EE8AB980E580BBC4
:100E900015B814B808957D9B02C080E801C080E0B9
:100EA000499982604C9981607F9984603799886004
:100EB000089580933701823049F018F4882341F077
:100EC0000895833029F0843019F0089576980895B4
:100ED000769A0895809137018350823020F49EB134
:100EE00080E489278EB90895B19B03C0B19A81E04F
:100EF000089580E0089514B88FEF85B98E98869A8A
:100F000087988F9A8198899A8098889A46983E9A6D
:100F10003F98479A8C98849A85988D9A5098589AB9
:100F20005D98559A54985C9A5F98579A5198599A37
:100F300010923F0110923A01109239018FEF9FEF0A
:100F400090933C0180933B01089589B18295817013
:100F500091E08927499B82607F9B8460379B8860F2
:100F6000799B8061789B8062089581E0089508955F
:100F700085E38A95F1F70000809138018F5F843610
:100F800018F48093380111C01092380180913D010E
:100F900090913E01892B49F080913D0190913E0155
:100FA000019790933E0180933D01A89520913D01CA
:100FB00030913E0181E0232B09F080E00895AF924B
:100FC000BF92CF92DF92EF92FF920F931F93CF9336
:100FD000DF936C0161E003DB00E010E091E4A92EF7
:100FE000B12CD1E080914101882321F00CDB80E01D
:100FF00090E059C085E1E82EF12C80913F018D7F72
:1010000080933F01C0914101C1112EC05D9A5F984C
:10101000B0923E01A0923D01799B0BC0A9DF8823CD
:10102000D9F380913F01826080933F015D9A5F9A7E
:101030001CC085E08A95F1F70000C3B1C09578998E
:1010400007C080913F01806480933F01D0934101AC
:101050005F9A85E08A95F1F700005D98799902C062
:10106000A895FCCF5D9A01C0C0E080913F0181FF4F
:1010700009C081E0E81AF10809F4B8CF52D981110A
:10108000BCCFB4CF8C2FF7DA81110BC00F5F1F4F8D
:10109000A895C016D10629F080914101882309F452
:1010A000A1CFB1DAC801DF91CF911F910F91FF90CD
:1010B000EF90DF90CF90BF90AF9008958198899A7C
:1010C000499B09C04C9B07C080913F018068809379
:1010D0003F0181E00895499902C0A895FCCF14B85A
:1010E000982F909595B984B98AE18A95F1F700C057
:1010F0008998819A81E490E090933E0180933D012C
:101100004C990AC035DF8823D9F380913F01816073
:1011100080933F0181E001C080E08198899A14B8F2
:101120009FEF95B90895CF93C82F5F985D988091F0
:101130003B0190913C0197FD14C08898809A809162
:101140003B01BCDF8098889A87E691E00197F1F730
:1011500000C000008FEF9FEF90933C0180933B0114
:1011600011C08FEF90E090933E0180933D017999FB
:1011700009C0FEDE8823D9F380913F01846080930B
:101180003F010CC08E9A87E691E00197F1F700C00D
:1011900000008C2F93DF882311F08E9881E0CF918F
:1011A00008958FE3C0DF8E98E7E6F1E03197F1F71D
:1011B00000C0000010923A01089580DF811103C041
:1011C00091E090933A018E980895DF92EF92FF920A
:1011D0000F931F93CF93DF9300D01F92CDB7DEB74D
:1011E0007C01D62E1092410110923F0160E0F7D9A8
:1011F000D1FE63C0E114F10409F43EC0CE010296B1
:101200007CDA882319F080E090E08CC087010150DF
:1012100011098A810115110521F0982F9F719F31C5
:1012200089F486FF0BC08FE57EDF8E9887E691E01C
:101230000197F1F700C00000109239018A8185FF03
:1012400066C039C0CE01019658DA8111DCCFD0FEDC
:1012500016C019818A818F71806465DF81110CC08D
:10126000812F8F7080662ADF811105C05F9A5D9A99
:1012700081E0809339018E9800E010E048C087013A
:10128000025011090330110508F041C0D9808D2D9D
:10129000807F803E31F0803F91F0803609F037C08A
:1012A00016C08A818F7180623EDF811104C08D2D4E
:1012B0008F70806E82DF75DF2AC0870128C08A8127
:1012C0008F71806230DF811122C08D2D09C08A812B
:1012D0008F71806228DF81111AC08D2D8F71806619
:1012E0006CDF15C0CE01039608DA811117C0DB80D0
:1012F00080913B0190913C0197FF0DC08D2D90E0B6
:1013000090933C0180933B0101501109A895011570
:10131000110541F705C0D2DE882381F3E12CF12CC1
:1013200072D9C7010F900F900F90DF91CF911F914D
:101330000F91FF90EF90DF9008951F93CF93DF936D
:10134000182FD9DD469A82E390E090933E01809376
:101350003D010EDE8823E9F34698CCE4DDE185E328
:101360008A95F1F70000499B02C04C9905C087EFB0
:1013700092E00197F1F70EC08E9A95E39A95F1F7F6
:101380000000499B0AC04C9B08C08E988FEC92E0ED
:101390000197F1F700C0000023C08E9887EC90E021
:1013A0000197F1F700C00000499B02C04C990EC0A4
:1013B0008FE891E00197F1F700C00000499B02C05F
:1013C0004C9904C090EA9A95F1F70AC087E092E040
:1013D0000197F1F700C00000499B02C04C9909C079
:1013E0000E949101882329F0219709F0B8CF1111AB
:1013F000B6CFDF91CF911F9108957DDD8FE891E009
:101400000197F1F700C000008998819A8898809A26
:1014100081988998809888988FE891E00197F1F7F2
:1014200000C00000799B03C08FB1817001C080E0D3
:1014300080FF04C060DD8EE091E0089580E090E0E0
:1014400008951F93CF93DF9300D01F92CDB7DEB7DF
:10145000EAE4F1E082E591E02091F10021938E171A
:101460009F07D1F780914A0190914B01492F50E09D
:101470004A30510508F0FCC0FA01E758FF4F0C94C0
:101480004713803879F0823809F0F2C080914E011C
:101490008093E9008091EB0085FB882780F910920A
:1014A000E90006C08091450190914601911182604A
:1014B0009091E800977F9093E8008093F10010925C
:1014C000F1009EC0282F2D7F09F0D2C0882319F08B
:1014D000823061F0BEC080914C01813009F0B9C00A
:1014E000933009F080E0809346012BC080914C013D
:1014F000811127C080914E01877009F4AAC08093A2
:10150000E9002091EB0020FF1CC0933021F4809172
:10151000EB00806214C09091EB0090619093EB001F
:1015200021E030E0A90102C0440F551F8A95E2F77F
:101530004093EA001092EA008091EB00886080936B
:10154000EB001092E9008091E800877F60C0811174
:101550008FC010914C018091E800877F8093E80054
:10156000BBD08091E80080FD05C0809149018111C8
:10157000F8CF6FC0812F8F7719F093E090934901D6
:1015800080688093E30065C08058823008F070C0A6
:101590009E012D5F3F4FAE014F5F5F4F60914E0147
:1015A00080914C0190914D01F9DBBC01892B09F42C
:1015B00050C08091E800877F8093E8002B8189816B
:1015C0009A81211102C0C9D105C0213011F425D260
:1015D00001C064D18091E800982F9B7F9093E80030
:1015E0008F778093E80035C0803809F041C0809142
:1015F000E800877F8093E800809147018093F100A5
:101600008091E800982F9E7F9093E8008F778093D9
:10161000E80062D01EC081112BC080914C019091D6
:101620004D0199270297ACF48091E800877F809361
:10163000E80080914C01809347014ED08091470192
:10164000811102C083E001C084E0809349010E94BF
:10165000CE018091E80083FF0EC08091EB00806294
:101660008093EB008091E800877F8093E80003C0BF
:101670000E942E01EECF0F900F900F90DF91CF912F
:101680001F9108958093E900EBEEF0E08081816086
:101690008083EDEEF0E010826093EC004083809157
:1016A000EE00881F8827881F08951092F40080E0BC
:1016B0008093E9001092F0001092E8009091ED0004
:1016C0009D7F9093ED009091EB009E7F9093EB00B7
:1016D0008F5F873069F7089580914A0187FF12C0B4
:1016E0008091E80082FD05C0809149018111F8CF09
:1016F00016C08091E800982F9B7F0CC08091490113
:10170000882369F08091E80080FFF8CF8091E8009D
:10171000982F9E7F9093E8008F778093E80008953C
:1017200095E62091EC00822F817020FF05C080910A
:10173000E80080FF05C019C02091E80022FD1AC012
:1017400080914901882399F08091EB0085FD11C0BB
:101750008091E10082FFE5CF8091E1008B7F809353
:10176000E1009150F1F683E0089580E0089582E071
:10177000089581E008950F931F93CF93DF93EC01B9
:101780008B01CEDF81111DC02097D1F08091E80040
:1017900085FD12C08091E800982F9B7F9093E80010
:1017A0008F778093E8000115110559F3F801099529
:1017B000813039F784E005C08091F1002197E4CFB2
:1017C00080E0DF91CF911F910F910895EF92FF92EA
:1017D0000F931F93CF93DF938C01EB017A01A0DF6E
:1017E000811121C02097F1F08091E80085FD12C0A1
:1017F0008091E800982F9E7F9093E8008F778093E8
:10180000E800E114F10459F3F7010995813039F743
:1018100084E009C0F80180818093F10021970F5F77
:101820001F4FE0CF80E0DF91CF911F910F91FF908C
:10183000EF900895EF92FF920F931F93CF93DF9352
:101840008C01EB017A016CDF811121C02097F1F04E
:101850008091E80085FD12C08091E800982F9B7F61
:101860009093E8008F778093E800E114F10459F336
:10187000F7010995813039F784E009C08091F100C2
:10188000F801808321970F5F1F4FE0CF80E0DF9149
:10189000CF911F910F91FF90EF90089520915001EB
:1018A000309151012617370768F06115710559F419
:1018B0002091E800322F3E7F3093E8002F7720936D
:1018C000E80001C0B90140E061157105A9F120915E
:1018D000E80023FD3EC02091E80022FD34C02091A5
:1018E00049012223C1F12091E80020FFEDCF409172
:1018F000F3002091F20030E0342BFC01CF016115A0
:10190000710559F02830310540F481918093F10040
:10191000615071092F5F3F4FF1CF41E02830310511
:1019200009F040E02091E800322F3E7F3093E8003C
:101930002F772093E800C8CF4111C9CF04C0809110
:101940004901882341F08091E80082FFF8CF80E0D0
:10195000089581E0089582E008952091500130912A
:1019600051012617370768F06115710559F4209168
:10197000E800322F3E7F3093E8002F772093E80075
:1019800001C0B90140E061157105B1F12091E80095
:1019900023FD3FC02091E80022FD35C02091490180
:1019A0002223C9F12091E80020FFEDCF4091F30000
:1019B0002091F20030E0342BFC01CF01611571055C
:1019C00061F02830310548F484918093F100615032
:1019D00071092F5F3F4F3196F0CF41E0283031053C
:1019E00009F040E02091E800322F3E7F3093E8007C
:1019F0002F772093E800C7CF4111C8CF04C0809152
:101A00004901882341F08091E80082FFF8CF80E00F
:101A1000089581E0089582E00895CF92DF92EF92D9
:101A2000FF920F931F93CF93DF936C01EB01809193
:101A30005001909151018617970760F0209759F453
:101A40008091E800982F9E7F9093E8008F77809395
:101A5000E80001C0EC0130E02097E1F18091E8005E
:101A600083FD45C08091E80082FD3BC08091490123
:101A7000882309F43EC08091E80080FFEDCF80917B
:101A8000F3000091F20010E0182B7801C701801BD1
:101A9000910B8C0D9D1D209761F028E0E216F1045A
:101AA00040F40AD68093F10021972FEFE21AF20A50
:101AB000EDCF31E028E0E216F10409F030E02091AA
:101AC000E800422F4E7F4093E8002F772093E800F4
:101AD0006C01C2CF3111C2CF04C08091490188236B
:101AE00041F08091E80082FFF8CF80E003C081E000
:101AF00001C082E0DF91CF911F910F91FF90EF9095
:101B0000DF90CF9008957AD081D010924901109241
:101B1000470110924601109245018AE482BF80E19C
:101B200089BD89B5826089BD09B400FEFDCF809171
:101B3000D800982F9F779093D80080688093D80022
:101B40008091D70081608093D7008091D8008F7DED
:101B50008093D8008091E0008B7F8093E00080919B
:101B6000E0008E7F8093E0008091E1008E7F809383
:101B7000E1008091E20081608093E2008091E100C9
:101B8000877F8093E1008091E20088608093E2008B
:101B90008091D80081608093D8000895B4DFE8ED8B
:101BA000F0E080818061808381E0809348017894B7
:101BB0000895A9DFE0EEF0E0808181608083E8EDA8
:101BC000F0E080818F77808319BC80818F7E808355
:101BD0001092480108950895CF9380914901882378
:101BE00059F0C091E900C7701092E9008091E800B7
:101BF00083FD27DCC093E900CF910895E8EDF0E084
:101C000080818E7F80831092E20008951092DA0026
:101C10001092E10008951F920F920FB60F921124B7
:101C20002F933F934F935F936F937F938F939F93E4
:101C3000AF93BF93EF93FF938091DA0080FF17C0BB
:101C40008091D80080FF13C08091DA008E7F80934E
:101C5000DA008091D90080FF06C081E080934901BD
:101C60000E94200104C0109249010E942801809125
:101C7000E10080FF1DC08091E20080FF19C08091CB
:101C8000E1008E7F8093E1008091E2008E7F80935F
:101C9000E2008091E20080618093E2008091D800B0
:101CA00080628093D80019BC85E08093490193DF5E
:101CB0008091E10084FF2AC08091E20084FF26C069
:101CC00080E189BD89B5826089BD09B400FEFDCF80
:101CD0008091D8008F7D8093D8008091E1008F7E25
:101CE0008093E1008091E2008F7E8093E2008091FA
:101CF000E20081608093E20080914701811102C07F
:101D000083E001C084E08093490165DF8091E100B8
:101D100083FF28C08091E20083FF24C08091E1000E
:101D2000877F8093E10082E0809349011092470110
:101D30008091E1008E7F8093E1008091E2008E7FB0
:101D40008093E2008091E20080618093E200ADDC4C
:101D500042E060E080E096DC8091F0008860809353
:101D6000F00039DF8091E10082FF0AC08091E2003B
:101D700082FF06C08091E1008B7F8093E1002BDF22
:101D8000FF91EF91BF91AF919F918F917F916F9153
:101D90005F914F913F912F910F900FBE0F901F9029
:101DA00018951F920F920FB60F9211240F931F9345
:101DB0002F933F934F935F936F937F938F939F9353
:101DC000AF93BF93CF93EF93FF9309EE10E0F80129
:101DD000C081C77001DFE8EEF0E08081877F8083FB
:101DE000F801C083FF91EF91CF91BF91AF919F9187
:101DF0008F917F916F915F914F913F912F911F91A3
:101E00000F910F900FBE0F901F901895611115C084
:101E1000E82FF0E0E152FE4FE491E1FD5F9AE0FD32
:101E20005D9AE2FD8E9AE7FD8C9AE3FD469AE6FD07
:101E30005E9AE5FF3AC0769A0895E62FF0E0E15207
:101E4000FE4F811110C0E491E1FD5F98E0FD5D98C7
:101E5000E2FD8E98E7FD8C98E3FD4698E5FD7698C7
:101E6000E6FF23C021C06491E82FF0E0E152FE4F6D
:101E7000E491E1FD5F9AE0FD5D9AE2FD8E9AE7FD57
:101E80008C9AE3FD469AE6FD5E9AE5FD769A61FD41
:101E90005F9860FD5D9862FD8E9867FD8C9863FD8C
:101EA000469865FD769866FD5E9808950E944B07FA
:101EB000282F982F9095892F817021FF826022FF13
:101EC000846027FF806108951F93CF93DF93C82F0D
:101ED000162FD9EC0E944B078C23811307C0D150D9
:101EE00029F085E38A95F1F70000F4CF0E944B07B3
:101EF000C82381E0C11301C080E0DF91CF911F9121
:101F00000895CF93DF93E82FF0E0E152FE4FC491A4
:101F1000662311F0DC2F0AC0D0E008C00E949101B6
:101F2000882351F085E38A95F1F700000E944B0762
:101F30008C23D81799F381E0DF91CF9108951F93F7
:101F4000CF93DF93182F5F985D988E98469A2FEF66
:101F500081EE94E0215080409040E1F700C0000005
:101F60004698CCE4DDE15F985D988E98469887ECC2
:101F700090E00197F1F700C000004C9905C087E59B
:101F800092E00197F1F70CC087EC90E00197F1F730
:101F900000C000004C9907C08FE891E00197F1F76D
:101FA00000C0000014C08E9A8FE891E00197F1F70D
:101FB00000C000004C9B02C08E9809C08E988FE82C
:101FC00091E00197F1F700C000004C9908C00E9411
:101FD0009101882321F0219731F61111C4CFDF91AF
:101FE000CF911F910895CF92DF92EF92FF920F93BE
:101FF0001F93CF93DF93EC0161E00E94EF02E12C8D
:10200000F12CCC24C39401E513EC499911C0015083
:10201000110921F00E949101811105C00E94030362
:1020200080E090E062C08AE68A95F1F700C0EDCFCB
:10203000809141018111F2CF5D9889EC499B07C0E5
:10204000815029F09AE09A95F1F700C0F7CF499BAB
:102050000AC0C09241015D9A87E191E00197F1F7D2
:1020600000C000005D98F89462E082E02DDF182F38
:1020700088E0D82E00E0112381F060E082E024DFC8
:10208000182F882339F006954C99006862E082E0A9
:102090001BDF182FDA94D110EECF7894112379F04A
:1020A0005D9A802F0E943B0381111DC09FEFE91AAA
:1020B000F90A87EC90E00197F1F700C00000A895BD
:1020C000EC16FD0641F0112341F080914101882377
:1020D00009F499CF08C0111102C0C0E0D0E00E94FD
:1020E0000303CE0102C0E701FACFDF91CF911F9128
:1020F0000F91FF90EF90DF90CF900895CF92DF92F5
:10210000EF92FF920F931F93CF93DF931F92CDB760
:10211000DEB78C01D62E10924101009709F497C0CA
:1021200060E00E94EF0260E08CE0CEDE8823C1F028
:102130005D982D2D2270C22ED1FC02C082E001C01C
:1021400086E05F9A847009F08E9A8AE08A95F1F7AA
:1021500000C061E081E0B8DE811105C05F988E9813
:102160000E94030374C095ED9A95F1F70000780181
:102170004C9B03C000E010E048C05F984C9905C03C
:102180000E9491018111FACFF5CF91E0E916F10497
:1021900041F4C11006C061E081E096DE60E081E0BC
:1021A00093DE5F9ACE0101960E947D038111E2CFFA
:1021B000998188E0EBE2F1E03197F1F700C000008F
:1021C00090FD05C05D9AFAE0FA95F1F700C05F98BE
:1021D0002AE62A95F1F700C05F9A5D98969581509E
:1021E00049F761E081E070DE882309F4C3CF81E024
:1021F000E81AF108EFE8F1E03197F1F700C00000CC
:10220000A895E114F10409F0B3CF0E94030301156E
:102210001105B9F0D0FE12C05D9A8E98F5E0FA95DE
:10222000F1F700005F982AE02A95F1F700C0499B7A
:1022300006C00E9491018111FACF09C08E98C80191
:1022400008C08AE68A95F1F700C05F988E9880E012
:1022500090E00F90DF91CF911F910F91FF90EF9041
:10226000DF90CF9008955F985D988E98469885E3AB
:102270008A95F1F700008AE191E00895CF93DF930A
:10228000C82FD8E0C7FF02C05D9A01C05D988AE000
:102290008A95F1F700C05F988AE08A95F1F700C04F
:1022A000499B05C00E9491018111FACF1CC0C7FF54
:1022B00002C05D9806C05D9A04C00E949101882307
:1022C00091F0499BFACF5F9A5D988AE08A95F1F781
:1022D00000C04C9B05C00E9491018111FACF03C040
:1022E000CC0FD15079F6DF91CF910895FF920F93E3
:1022F0001F93CF93DF93D8E0C0E0FF24F3944C9971
:1023000005C00E9491018111FACF2BC05F988AE02D
:102310008A95F1F700C001E0499B03C000E010E09E
:1023200001C010E85D9A89B1869581708F250813E8
:1023300005C00E9491018111F6CF13C05D988AE01B
:102340008A95F1F700C04C9B05C00E949101811154
:10235000FACF07C0C695C12B5F9AD15081F68C2F5A
:1023600001C08FEFDF91CF911F910F91FF900895E2
:10237000CF93DF93C82FD4E0C0FF02C05D9A01C0A5
:102380005D988AE08A95F1F700C08E98499905C05A
:102390000E9491018111FACF1AC0C695C0FF02C0F8
:1023A0005D9A01C05D988AE08A95F1F700C0C695F4
:1023B0008E9A499B05C00E9491018111FACF07C0F6
:1023C000D150D1F65D988AE08A95F1F700C0DF918F
:1023D000CF9108951F93CF93DF9314E0C0E0499904
:1023E00005C00E9491018111FACF23C08AE08A952D
:1023F000F1F700C04C9B02C0D0E001C0D0E88E983D
:10240000499B05C00E9491018111FACF12C08AE058
:102410008A95F1F700C0C695CD2BC6954C9B02C09E
:1024200080E001C080E8C82B8E9A1150C1F68C2F35
:1024300001C08FEFDF91CF911F910895CF93DF936C
:10244000EC014C9B05C00E9491018111FACF19C08B
:1024500088819FEF94B985B982E08A95F1F700C031
:102460005F984C9905C00E9491018111FACF09C073
:1024700089819FEF94B985B982E08A95F1F700C010
:102480005F9ADF91CF910895CF93DF93EC014C9B3E
:1024900005C00E9491018111FACF11C014B815B87E
:1024A00083B188835F984C9905C00E949101811186
:1024B000FACF05C014B815B883B189835F9ADF914C
:1024C000CF9108959FEF94B985B982E08A95F1F78D
:1024D00000C05F984C9905C00E9491018111FACF0C
:1024E00007C05F9A4C9B04C00E9491018111FACFF2
:1024F0000895CF935F984C9906C00E949101811175
:10250000FACFCFEF0BC014B815B8C3B15F9A4C9B8C
:1025100005C00E9491018111FACFF3CF8C2FCF918A
:1025200008958E9A5F985D988AE18A95F1F700C0C8
:102530004C9BFECF95E09A95F1F7000014B815B8C2
:1025400083B18E984C99FECF9AE19A95F1F700C02D
:102550000895FC0181E099B19295917098276913D3
:10256000FACF14B815B883B1808380E008958E9AAD
:102570005F985D989AE19A95F1F700C04C9BFECF69
:102580009FEF94B985B985E08A95F1F700008E98A0
:1025900095E39A95F1F700004C99FECF14B815B861
:1025A00083B1089521E099B19295917092276913B2
:1025B000FACF9FEF94B985B980E008958E9A5F981D
:1025C0005D988C9825E02A95F1F7000098E080E06E
:1025D0007D99FECF7D9BFECF22E02A95F1F729B1B0
:1025E00022952170880F822B915091F78E98499BEC
:1025F000FECF08958E9A5F985D988C982AE12A956F
:10260000F1F700C04999FECF88E090E39BB900C084
:1026100000C000008C9825E02A95F1F78150B1F7B1
:1026200085E08A95F1F700008E98499BFECF0895CA
:1026300024E630E091E089B186958170892768179A
:1026400029F021503109B9F78FEF089588E090E320
:102650009BB900C000C000008C9825E02A95F1F7D6
:102660008150B1F70895AA1BBB1B51E107C0AA1FF7
:10267000BB1FA617B70710F0A61BB70B881F991F23
:102680005A95A9F780959095BC01CD010895EE0F5C
:10269000FF1F0590F491E02D0994FB01DC014150EE
:1026A000504048F005900D920020C9F701C01D92DE
:1026B00041505040E0F70895F999FECF92BD81BD99
:0C26C000F89A992780B50895F894FFCF90
:1026CC000304000F080330003000300000009D09A7
:1026DC00E508DF07B507A507B7079F0F7E10F30FB7
:0A26EC00810F560F060F0055AAFFDC
:00000001FF
